:4000000000800020110000007D0200007D02000008B5044B1A6803F53F5302331A6000F035F900BFFA46004010B5054C237833B9044B13B10448AFF300800123237010BD4B
:400040009881FF1F00000000383F0000084B10B51BB108480849AFF300800848036803B910BD074B002BFBD0BDE81040184700BF00000000383F00009C81FF1F0881FF1F33
:40008000000000000122024B1A60024B1B787047B481FF1F6465004010B584B002F0A4FA002001A9092202F009FC50B15C4800F0BDFB0120002100F021FC01A800F0B6FB08
:4000C00009E0584800F0B2FB0120002100F016FC554800F0ABFB4FF4FA6000F0CDFA0020014600F00BFC514800F0A0FB01A800F069FD38B90120002100F000FC4C4800F0EB
:4001000095FB06E00120002100F0F8FB494800F08DFB4FF4FA6000F0AFFA474802F0B4F818B9464800F082FB09E0454800F07EFB0120002100F0E2FB424800F077FB4FF4CF
:40014000FA6000F099FA4048404902F04DFB0446002841D03E4800F069FB3B4800F066FB0120002100F0CAFB3A4800F05FFB4FF4FA6000F081FA012000F066FB0020014682
:4001800000F0BCFB204634490A2202F077FC68B1324800F04BFB2C4800F048FB0120002100F0ACFB2E4800F041FB09E02D4800F03DFB0120002100F0A1FB2B4800F036FB51
:4001C0004FF4FA6000F058FA012000F03DFB0020014600F093FB09E0194800F027FB0120002100F08BFB214800F020FB4FF4FA6000F042FA62B600F073FB00F02FFA1C48AE
:4002000000F0D2F91B4B1B68002BFBD00022194B1A6020461849052202F030FCF2E700BF3C3F00004C3F00005C3F00006C3F00007C3F0000883F0000903F0000943F000010
:40024000A43F0000B83F00000C81FF1FC43F0000C83F0000D03F0000DC3F0000E83F0000F83F000008400000184000002040000085000000B481FF1F2840000008B503F077
:400280001BFE03680C2B00D1FEE7FEE708B5104E104D16E029686B68AC68002204E051F8040B43F8040B0432A242F8D1E868002203E0002143F8041B04328242F9D110359E
:4002C000013E002EE6D103F0FDFDFFF7E5FEFEE7010000001043000008B5124A124B1A60124A136843F40073136000230AE0032B03D80F4A52F8231000E00E490E4A42F842
:40030000231001332F2BF2D90C4B1A780C4B1A70094A0C4B1A6000F0ADF800220A4B1A6008BD00BF0004FA050CED00E014ED00E0000000007D0200000080FF1FBC760040ED
:400340000481FF1F08ED00E00081FF1FFEE700BFF0B40022174611E050F82760F3B226F0FF0608E001EB420511F812406D78A5550132013BDBB2002BF4D10137122FEBD9A1
:40038000F0BC7047064B1B78DBB203F00701054A11701B09013213704422034B1A707047CF0100496E5800407658004008B50A46002103F0B8FD08BD38B50024234B1C80EC
:4003C000582202331A70022203F27E231A7008224FF040231A70032103F5007319701C4B1B78DBB21B490B701B4B1A8041F25122023B1A8019250CE0184B1B7803F0010318
:4004000043EA440404F003044FF4F07000F094FA013D0DB1032CEFD115B90320FFF796FF0F4B4FF480721A8007221A7000220D490A704820023108701A700222033B1A706D
:40044000094A137843F00103137038BD8040004008010049A146004022420040254200400440004006400040A243004008B503F04FFD08BD70B572B62D4A137843F00403B2
:40048000137000240CE02B4963001A1952000A4423445B00C8589188FFF788FF0134E4B2072CF0D94FF090402349FFF751FF234A137843F0020313701032137843F0020347
:4004C00013701F4C237843F040032370A2F58632513A137843F0100313701A481A490822FFF7C4FF19481A490822FFF7BFFF194819490822FFF7BAFF184819490822FFF774
:40050000B5FF184A137843F008031370164E01253570FFF751FF81233370144B1D70FFF731FF134821460E22FFF7A0FF70BD00BFE8460040304000004C0000480350014012
:40054000A04300400251004024040048125100402C0400482251004034040048325100403C040048224300400048004004000840B0430040014B1B681864704708ED00E039
:400580004001C0B2014B1870704700BF00E400E00122014B1A60704700E100E00122014B1A60704780E100E010B50446FFF7F6FF2046FFF7DFFF0720FFF7E2FFFFF7E8FF29
:4005C00010BD00BF024A137843F080031370704774650040014B1870704700BF84650040014B1878704700BF64650040014B1860704700BF24650040014B1868704700BF7C
:4006000044650040014B1860704700BF0465004008B501E0FFF7F0FFFFF7E2FF10F0080FF8D108BD10B50B4C2046FFF7DFFF2046FFF7E8FF00F088F9074A137843F01003C3
:40064000137000F085F9FFF7E3FF0120FFF7C2FF10BD00BFFF356E019465004008B5054B1B7823B9FFF7DEFF0122024B1A70FFF7A9FF08BDB881FF1F10B5044605E0084B27
:40068000186800F059F9A4F50044B4F5004FF6D8034B586800FB04F000F04EF910BD00BF1881FF1F08B5034B1B7A03FB00F000F043F908BD1881FF1F10B50B4C237803F07E
:4006C0009F032370237803F0F00323702378184340F0100020700120FFF7E4FF237803F0EF03237010BD00BF2051004038B505460E4C237843F020032370237803F0BF033B
:4007000023700020FFF7CEFF237803F0F003237023781D4345F0100525700120FFF7C2FF237803F0EF03237038BD00BF2051004070B5354B1A7802F08002D2B21A703349D0
:400740000A7802F0F00242F00F020A7001310A7802F0F0020A7001310A7802F0F0020A701A7802F0DF021A701A7842F040021A704FF4CA760020FFF795FF234D2B7843F040
:4007800010032B700120FFF78DFF214B1C78E4B22B7803F0EF032B700020FFF783FF04F00804E4B22B7843F010032B700120FFF779FF2B7803F0EF032B7014B90A20FFF7DE
:4007C00071FF013E0CB1002ED4D10F4A137803F0BF031370137803F08003DBB213700232137803F0F00313700132137803F0F00343F00F0313700132137803F0F00343F022
:400800000F03137070BD00BF20510040225100402151004010B50446FFF78AFF2009FFF765FF04F00F00FFF761FF10BD38B505460078012404E0FFF7EDFF285D0134E4B2FF
:400840000028F8D138BD00BF10B50446FFF770FF2009FFF731FF04F00F00FFF72DFF10BD08B52820FFF708FF0320FFF725FF0520FFF702FF0320FFF71FFF0F20FFF7FCFE6D
:400880000320FFF719FF0120FFF7F6FE0220FFF713FF0520FFF7F0FE0620FFF7D5FF0E20FFF7D2FF2C20FFF7CFFF0820FFF7CCFF0120FFF7C9FF0C20FFF7C6FF0320FFF70C
:4008C000C3FF0520FFF7D8FE08BD00BF08B50C20FFF7BAFF0122014B1A7008BDB981FF1F08B5054B5B7823B9FFF7BAFF0122024B5A70FFF7EBFF08BDB981FF1F08B5032889
:4009000019D8DFE800F002070D1381F08000FFF79BFF08BDA1F14000C0B2FFF795FF08BDA1F16C00C0B2FFF78FFF08BDA1F12C00C0B2FFF789FF08BD0230800803D000BF95
:4009400001380046FCD17047EFF3108072B6704780F31088704700BFF0B505468DB0002800F0248100210C22684601F071FB00210C2203A801F06CFB0021142206A801F016
:4009800067FB002328460B9301F09BFC00286C46C0F20C81284601F0A7FC2846694601F043FD0028C0F20281824B019903F1480218681E46884202D80C339342F8D1B38813
:4009C000019F0B96B7FBF3F7384600F039F9BDF808100446C900784301F0B6FB202C4FEA4000B3680CD021301A461446D218D11A8142FAD9241A5A1E22421DD0E4181BE00D
:400A00001C4601301A460127D118824202D801370A46F9E70198B188C31A9A1AB2FBF1F0BDF808104001C90001F08EFBB36840005F433F1AADF81070019B47F6A7721B1BC7
:400A4000934201D801220EE0B3F5803F01D2042209E0B3F5800F01D2062204E0564A934294BF0B220C228DF82020544A019E0693079402F1500017681146B74202D80832D9
:400A80008242F8D1621E0879D2184B79ADF8000000FB03F1B4FBF1FC01FB1C4EADF824C0B2FBF1FC01FB1C21BEFBF3FEB1FBF3F18DF821E08DF82610B4FBF3FEB2FBF3F15C
:400AC00003FB1E4403FB1122013401328DF822408DF82720ADF828C0ADF8023001F048FD0446002862D0364B00271A8A002101F0AFFA84F8BE719DF8212004F5DE7384F8BE
:400B0000BF21BDF824009DF8221000F4407001F03F01033341EA90015970BDF824105A1C5170531C9DF820205E1C5A709DF82620731C7270BDF828109DF8272001F4407142
:400B400002F03F0242EA91025A70581CBDF8283043700799023001F01DFB06F10800069901F018FB04F5FF704AF6552101F01CFB2846394622463B4601F020FCB84214BF32
:400B80004FF0FF363E46204601F008FD76B94FF40073ADF80E300B9B0CA99B88284621F8243DCDF814D002F063FA01E04FF0FF300DB0F0BD60400000FF03FB00A84000007D
:400BC000E091FF1F10B5002101F0A8FEBDE81040FFF7C2BE0C2802D0102805D102E001EB510070474800704788007047036840689B685B6AB0FBF3F0704710B5046D836C11
:400C0000E4B199421AD3E318994217D2013B99420CBF4FF0FF31013172B190F836300C2B02D0102B05D102E00905090D03E089B201E021F070411160012010BD002010BDD7
:400C400040F6F473984201D80C2070474FF6F473984294BF102020207047027F8368023902FB01307047431EDBB21F2B13D92F2811D007D826280ED002D8222809D10AE066
:400C80002A3804E03A2804D33F2804D95B38022801D90120704700207047034638B30B2A01DD0B2200E0013A00201CE0082809D191F808C0BCF1200F0DD04FF02E0C03F8F8
:400CC00001CB08E038B991F800C0BCF1050F02D1ACF1200C04E011F800C0BCF1200F01D003F801CB01309042E0DB00221A7070472DE9F04788B005AE04460D4630461146C5
:400D000000229A469DF84490BDF84C80BDF8507000F01EFD08B1002413E020462946524600F00FFE044660B1129B31460093109A4B46CDF80480029700F0C6FF284601F0CA
:400D400041FC204608B0BDE8F08710B59DF80C400394BDE8104000F0D9BD00002DE9F04F144E87B0109DDDF848809DF84440376800950194CDF8088005937F6893468246BD
:400D80008946B84732680C4BDDF814C09A420DD060B9504649465A46634610951194CDF8488007B0BDE8F04FFFF7CFBF07B0BDE8F08F00BF2881FF1FF840000070B5C37A9A
:400DC00004460B7010300D4601F0F2F9064604F10E0001F0EDF940EA0640686004F1120001F0E6F90004A86004F1180001F0E0F9064604F1160001F0DBF940EA0640E860D3
:400E000004F11C0001F0BBF9286170BD2DE9F845038A04460E46924687692BB907F118002146626900F064FC38465146224600F0E7FC0546204600F065FCD5B12B78C3B19B
:400E4000E52BF1D095F80B80B8F10F0FECD018F00808E9D170692946B269FFF71EFF28463146FFF7ABFF238A404601332382BDE8F8854FF0FF30BDE8F885022201F0DABCD0
:400E80002DE9F04790F8366005460C46304611469146FFF79FFEB5F81E80AB6A20FA08F89845824602D30020BDE8F0876B8E05F118079844204641463A46FFF7DEFF204633
:400EC00001F0DFFC18B14FF0FF30BDE8F087AA8BA168013A0AEA020A1FFA8AFA92450AEB01031AF8015001D0013309E0204608F101013A46FFF7C1FF204601F0C2FCA368E5
:400F000018780C2E45EA002009D0202E0FD15D7840EA05409D7840EA0560BDE8F08719F0010F02D00009BDE8F0870005000DBDE8F08700002DE9F34190F83630144603FBBF
:400F400002F7828B8846D200511E0F40D71B0546B7FBF3F7002618E00E4B93F88030022B05D12846214601AAFFF747FE28B9284641462246FFF784FF0190019B0134A342C6
:400F800005D10136B6B2013F1C46002FE4DC3046BDE8FC81E091FF1F2DE9F34105460E46144698461F681CE0114B93F88030022B05D12846214601AAFFF71FFE28B92846E4
:400FC00031462246FFF75CFF0190737B0BB100240BE0AA6B019B0132934204D81BB1013F1C46002FE0D1C8F800702046BDE8FC81E091FF1F73B504680E4623681BB9FFF710
:40100000F5FD013039E0FFF7F1FD236998423CBF4FF0FF3323612369B3F1FF3F04D12268013323616261E3832169E28B451A954234BF2B4613463BB16069C918C018D21A48
:4010400060612161E283ED1A0DB9284615E002AB43F8045D31466269A068FFF79DFF6061019B21690246C91A4D19256123B9A0683146FFF75FFFE08301987CBD13B502AC1B
:4010800044F8043D2346FFF787FF019B002B18BF00201CBD2DE9F0410746884615461E460024384641462A460123FFF7E7FF30B1BA6B0134944201D80546F2E7002406B194
:4010C00034602846BDE8F0812DE9F74F04460D461E461746002A00F0B98090F836001146FFF778FDB4F81EA0A36A20FA0AFA9A45814680F0AB80638E04F118089A44284623
:4011000051464246FFF7B9FE284601F0BAFB6B7B002B40F09B80A38BAA68013B09EA03091FFA89F303EB020926B9216C8F4203D2276401E0791C216494F8361010290AD0ED
:40114000202911D1484601F01AF831460746484601F020F84EE0484601F02AF8B1B20746484601F021F845E028460092019301F029FA009A019B17F0010F13F802B01BD07F
:401180000BF00F0141EA06119954A28B013A934202D009F1010309E028460AF101014246FFF76BFE284601F06CFBAB681F7832093F0147EA1B171CE09E54A28B013A934234
:4011C00002D009F1010309E028460AF101014246FFF753FE284601F054FBAB681A78310A02F00F0701F00F0122F00F024BEA07270A431A70284601F0E5F994F83630202B8E
:4012000018D1B4F84620AAB9B4F84410284601F011FB284601F035FBA8684FF0FF3100F5F47000F0B7FF284601F0CCF94FF00103A4F84630E36BB3F1FF3F09D00FB1013362
:40124000E3632EB1E36B013BE36301E0012000E00020BDE8FE8F6FF07043FFF735BF70B5036D04460E4693B1002506E0AA1820463146531CFFF728FF0135236DA26C013B8C
:401280009D42F3D320463146AA18FFF7E4FF0023A3642365E364636570BD70B506460D461C460AB1FFF710FF304629462246BDE87040FFF7D0BF00002DE9F84504460E4625
:4012C00015461F46002B36D01C4B93F88030022B31D190F8368011464046FFF77BFCB4F81CA00AF1FF3A2AEA000A4FEACA0ABAFBF8FAAA44A8460EE0204631464246FFF711
:40130000BFFD50B9A36C0BB9C4F84880E36C08F101080133E364D045EED9E36C5BB167653B685A6922B1204631462B46FFF7CCFE236D01332365BDE8F88500BFE091FF1FBF
:401340002DE9F8459846274B054693F880300F46022B1646846B19D1436D984503D0C36C0BB1FFF77CFFB8F1000F0FD06B6D43450CD12B6DEA6C9A4204D9AC6C1C190133D5
:401380002B652CE028463946FFF769FF012E04F1010A01D9564505D92E6C012E01D9564500D902263446284639462246FFF768FD50B101345445F6D902240DE028463946BD
:4013C0002246FFF75DFD30B92846394622464346FFF772FF03E00134B442EFD300242046BDE8F885E091FF1FF8B507460E461546FFF7A6FF044628B1384631462A462346C7
:40140000FFF74BFF2046F8BDB2F1FF3F73B504460D4614D0561A013611D001F023FA084B00211A8AA06800F013FE022300936068A3682946324600F0B7FF0023E3737CBD46
:40144000E091FF1F2DE9F84F984690F8363004460C2B0D4616465AD04FF0FF3AD1463CE094F836003146FFF7B5FBB4F81CB0678E0BF1FF3B10EA0B0BE38B1DD1D840013F69
:401480003F1802222846394601F0D4F9A38BAA689B0852F80B1079B9013B0BF1040BF8D13BE0494628465246FFF7AEFFB946BB46284601F08AF8DA462946324601232046B7
:4014C000FFF7DCFD29460746324620460023FFF7FBFD2FB108F1FF383E46B8F1000FBFD1284649465246FFF78FFF13E02946324601232046FFF7C2FD2946074632462046CA
:401500000023FFF7E1FD2FB108F1FF383E46B8F1000FEBD14046BDE8F88F0AF1010B5F45BFD1C5E72DE9F845054601F021F8044608B90546D0E0284600F062FF684E338A33
:40154000834208D338B10021284622460B4600F0EAFE002804DA204601F020F80025BBE004F5FF7000F024FE4AF65523984240F0AD8004F10B0000F01BFE10F47E4F0746FD
:4015800000F0A480338A8342C0F0A080237C022B40F09C8094F80D80B8F1000F00F096800021402205F1180000F052FD04F1130000F0FEFD064620B904F1200000F0DFFD0D
:4015C000064604F1160000F0F3FD824680B904F1280000F0EDFD10F08F0F77D104F1240000F0CDFD824604F12C0000F0C8FDE862022385F83530C5F828A0AE6185F834804F
:4016000004F10E0000F0D4FD688604F1110000F0CFFD95F835206B8E288602FB0A3A7A0992B2B0FBF2F25244AF832A62092301219940B94201D1EB8302E00133102BF6D148
:4016400008FB07F7B61AB6FBF8F6AE636F623046FFF7F6FA202818BFC5F82CA04FF0FF33202885F83600EB6332D104F1300000F09FFD00230146A5F844002246284600F095
:4016800052FE002822DB204600F079FD804604F5F27000F074FD074604F5FE7000F06FFD104B984514D1104B9F4211D10F4B98420ED104F5F67000F062FD286404F5F47072
:4016C00000F05DFDB04203D8E86301E0002500E00125204600F062FF2846BDE8F88500BFE091FF1F5252614172724161000055AA00238B60837F202B01D102B942694A60DF
:401700000A60704783680133836070472DE9F0410C46202105461F469DF818604FF0000800F096FC10E014F8080036B9E52804D1B8F1000F01D1E03802E000F0FEFCC0B2BA
:4017400005F8080008F10108B845ECDBBDE8F0812DE9F74506460D4608462849002A14BF92464FF0FF3A00F0A9FC804650B930462946022200F06BFEB01C2021092200F09D
:4017800067FC37E04FF0FF34002715F80780B8F1000F01D0574505D1B4F1FF3F08BF3C4664B925E04046FFF75EFA08B3B8F12E0F08BF3C4601370D2FE7D119E0082C17DC2F
:4017C0003F1B042F14DC30462946082223464FF00008CDF80080FFF799FF0123611C009306F10800691803227B1EFFF78FFF01E04FF001084046BDE8FE8500BF0841000005
:401800002DE9F74FD2F808B0436A4FEA4B18B8FBF3F8D368054698450E461446D2F8009001D20023D360B5F81EA0E368AAF1050A0BB9D4F804902BFA0AF7B9F1000F17D005
:4018400095F83420B8EB0303019206D04A4628463146FFF713FC814640B3494605F11800FFF7FBF9019B591E01EA0707C11906E02B8E43FA0AF39F4218D2E96A79183046D6
:40188000C4F80090C4F80C80012200F0D3FF304600F0F7FF50B9013000FA0AFAB3680AF1FF3A0AEA0B0B03EB4B1000E00020BDE8FE8F2DE9FF4107460E4601A811461A46F0
:4018C0000A9D9DF82C40FFF743FFC8B9384631462A46FFF795FF8046A0B1037883B101A90B2200F0A5FB38B998F80B3004EA0302A24201D1082B05D12846FFF703FFE5E7CB
:401900004FF00008404604B0BDE8F0812DE9F04587B002AF04460E46154698469DF83CA039460E9A1830FFF7E3FE204631462A4643460097CDF804A0FFF7BBFF07B0BDE86D
:40194000F0852DE9F04500F1180785B005460C46384669469246FFF7CBFE284621466A46FFF74EFF06466846E846FFF7CBFE002E37D1BAF1000F02D12B8E002B35D121463E
:40198000009A00232846FFF785FB2146024600232846FFF729FD8046204600F06EFFB8F1000F22D0AA8B0021A06800F051FB38464146FFF752F995F8347000257E1E3618D7
:4019C00008E031462046012200F034FF204600F00DFF013E01357B1BB3F1FF3FF1D1A66803E033780BB1E52BB7D1304605B0BDE8F08538B504461A3000F0DAFB054604F110
:401A0000140000F0D5FB45EA004038BD2DE9F0451D4685B007460E462A6010465C21904600F097FB4FF0000A0446A04508D108F10108C5F8008040465C2100F08AFB0446E3
:401A400094B1C8EB0403002B0EDD10220192103A0292384631464246CDF800A0FFF77EF970B1FFF7C6FF824628685C2100F071FBA04604460028D8D10C9B0130C3F800A01E
:401A800005B0BDE8F085F8B505460C461E461746DAB16FF01A031370084600F093FD16B94FF47A7608E007F11C0000F068FB6B6A5E1E3618B6FBF3F63846FFF79AFF2146F6
:401AC000024633462846FFF7BDFC607BF8BD00002DE9F04FD1F8008093B0D8F808700BAD044608930E464FF0FF333946284609920F939DF870A000F0A3FD10AB00933846C2
:401B00002946224611ABFFF781FFD0B1F27A109B07920FAA00930292002338462946119A0193FFF71BF9044680B1C37A13F0100F07D10D9BDDF82CB0C3EB00094FEA6919B5
:401B400006E0284600F090FE0125A3E083468146099B002B3CD0002C33D0524B5D6912E02B687BB1AA7A6AB19A8B4A450AD19A695A4507D19B68BB4204D14FF6F7723281BE
:401B800000257EE0ED68002DEAD10DF12C0C6146384622460123CDF818C0FFF774FFDDF818C018B14FF0FF3333816AE03E4B1B68DC6824B138466146109A0F9BA0472C469C
:401BC00006E0BAF1000F03D1089A002A44D065E0089BEBB1CCB1E37A13F0010F0BD0079A12F0150F07D04FF6FA733381BAF1000F01D1012500E000252046FFF7FAFE0746E9
:401C000004F11C0000F0BBFA29E0BAF1000F45D0BAF1010F01D000251BE0ECB901F0EAFA214B20221B68019282B2000C03920490009402949D6838460BA9119A109BA8471D
:401C400050B10D9ADDF82CB0C2EB00094FEA6919254628462F4602E00125002007464FF0FF33C8F81030C8F818B0A8F81C90079AC8F8040012F0010308BF1846C8F80070D2
:401C80007060B6F908300BA835EA230528BF012500F0EAFD284613B0BDE8F08F01255046DCE700BFE091FF1F2881FF1F70B505460C461A3089B200F077FA05F11400210CC7
:401CC000BDE8704000F070BA2DE9F0470446BDF824700D469146002120229A46BDF82860DDF8208000F0B4F90B222046294600F0AEFB04F10E00394684F80BA000F054FA57
:401D000004F11000314600F04FFA04F11600394600F04AFA04F11800314600F045FA20464946FFF7C3FF04F11C004146BDE8F04700F030BA07B5426803460AB910460AE0D0
:401D400081680020009048681968DB6800F00AFB003818BF01200EBD2DE9F047046805460F46A668FFF746F981468246002841D0D4F80080B8F1000F1BD142463046394695
:401D80002B46FFF7DDFA0246D8B11C4B6061C4F8108093F880302060022B07D030463946FFF759FA10B10120BDE8F087B9F1010A20D03046394662692B46FFF7C1FA804658
:401DC00028B94FF6FE732B810130BDE8F0870B4B93F88030022B05D03046394662694346FFF75BFA2369C4F8148001332361BAF1010ADDE70020BDE8F08700BFE091FF1F94
:401E00002DE9F041836804460D4608460122A1699E8B00F00FFD2846B4F81C80AF6800F030FDF8B9013E06EA4816B6B2BE1906F11C00616800F0AEF921683046FFF736FF2F
:401E400001F0D8F90446A1B206F1160000F0ACF906F11800210C00F0A7F92846BDE8F04100F00BBDBDE8F08103682DE9F04F9F68038995B001339BB2012B04460E46059209
:401E800001D90025CEE0394610AD0CA800F0D8FB3946284600F0D4FB039626680023D6F808909A4609F118010791D9F82420059906924FF0FF32099308920A950291049321
:401EC00020460CA9FFF748FF38B108A8FFF732FF5546002818BF00258FE03269069901324A43B9F81CB063680BF1FF3BD21A0BEA030B029B0798934228BF13460193716976
:401F0000FEF7ABFE99F83430B9F81C206768013BB7FBF2F703EA0707C719B9F81C300199CBEB03058D4228BF0D469D4228D0BBF1000F03D1626873689A420FD00DF1400836
:401F400040463946002200F075FC404600F099FC20B14FF6F9725546228154E01298039958442A460DF1400800F071FA40463946002200F05FFC404600F038FC90B141E06A
:401F8000099B089A9A1897420AD008A8FFF7D2FE002837D101230993039B08970B9301E001330993029B03995B1B019A029363684919521BAA44ED186560736803919D4205
:401FC000019207D91BB1194B93F880300BB9012104917560019A1AB101374FF0000B9CE7029B002B7FF46CAF08A8FFF7A3FE04995546002818BF002529B1304610A9FFF750
:40200000FFFE00E05546059A954205D0B4F9083013B94FF6F87323810CA800F025FC10A800F022FC284615B0BDE8F08FE091FF1F10B5002308E0C45C11F803C0013A01333C
:40204000644501D0012010BD002AF4D1104610BD70B5034602E003F8011C013A1C4622B103F003050133002DF5D193081ED04FF001354D4308E044F8105C44F80C5C44F8EE
:40208000085C44F8045C043B032BA44604F11004F1DC1C46002603E04CF80650013B0436002BF9D102F003020CEB8404002302E0E154013A0133002AFAD170BD002310F817
:4020C00003C0CA5C624501D0012070470133002AF5D110467047002300E00133C25C002AFBD11846704710B500230BE0C45C11F803C0644501D0012010BDC4186478013303
:4021000014B1013A002AF1DC002010BD10B5002302E0C454013A013303EB000C0AB9002308E0CC5C002CF4D1F9E700210CF80310013A0133002AF8D110BDA0F16103192B09
:4021400098BF00F0DF00704701384018B0FBF1F07047C9B203E00BB918467047013003788B42F8D1704742780178431C42EA01205A789B7842EA002043EA0020704783786F
:40218000C27803EB0222437803EB0222037803EB0220704703460A0A03F8011B42700A0C090E5A70997070470170090A417070474278037843EA022070470000094A0A4B18
:4021C000C11C10B5146821F0030118680919814201D9002010BD11609A685868013220189A6010BD6492FF1FBC81FF1F08B5FFF7E5FF00B9FEE708BDFFF7E0BF30B1044AEE
:402200009368013B93600BB9024A1360704700BFBC81FF1F6492FF1F014B586019607047BC81FF1F38B50546FFF7E0FF002104462A46FFF70DFF204638BD000010B5084C1F
:40224000A37C0BB1002010BD4FF40073238200F0C3FFA37C012043F00103A37410BD00BFE091FF1F13B501A900F058FB044640B100F0DDFB032804D12046019900F088FCB4
:4022800001E04FF0FF301CBDFFF7ECBF08B583680BB10020984708BD08B583680BB10120984708BD10B504680079A468A04710BD37B59DF81850046800790095E468A04704
:4022C0003EBD08B5036800799B69984708BD036810B55B69044623B10079984708B1002000E00120607110BD10B5437904460BB9FFF7EDFF607910BDF7B504461F460E46F2
:402300001546FFF7F1FF2046FFF7C6FF2A463146012320460097FFF7C5FF05462046FFF7B5FF2846FEBD10B504690919BDE81040FFF7E2BFF7B5044615461F460E46FFF715
:40234000D3FF2046FFF7A8FF0023009331462B463A462046FFF7ACFF05462046FFF796FF2846FEBD30B504699DF80C5009190395BDE83040FFF7DEBFF7B5044615461F46A3
:402380000E46FFF7B1FF2046FFF786FF0123009331462B463A462046FFF78AFF05462046FFF774FF2846FEBD30B504699DF80C5009190395BDE83040FFF7DEBF73B50446E4
:4023C0000E461546FFF790FF2046FFF765FF00232A460093314601332046FFF769FF05462046FFF753FF002D14BF4FF0FF3000207CBD10B504690919BDE81040FFF7DEBFB8
:4024000030B5054685B0FFF76FFF2B6828791C694FF47B71002201ABA04708B1002001E0BDF80C0005B030BD70B506460D46FFF75BFF336830791C694FF47B7100222B467A
:40244000A047002814BF4FF0FF30002070BD11F0030F70B584460B4632D110F0030F2FD195100446AC4611E053F8106CACF1040C44F8106C53F80C6C44F80C6C53F8086C23
:4024800044F8086C53F8046C44F8046C10341033BCF1030FE8D8AB081B0100EB030CCB1815F003050AD0284600215C584CF8014004310138F9D1AD00AC445B1902F0030264
:4024C00013F0010F19462FD11CF0010F60462BD15410254610E031F8086C043D20F8086C31F8066C20F8066C31F8046C20F8046C31F8026C20F8026C08300831032DEAD8BD
:40250000A108C9005B1814F003048C440AD0204600215D5A2CF8015002310138F9D16400A4441B1902F00102614610E013F8040C043A01F8040C13F8030C01F8030C13F87D
:40254000020C01F8020C13F8010C01F8010C18460433032A8C4601F10401E7DC32B10023C15C0CF8031001339342F9D170BD0000094B10B5D8689A68002308E0114652F899
:40258000084B1CB901230B60486810BD01338342F4D3002010BD00BFE091FF1F084B30B50022DC689B6808E05D6819460833854202D100230B6030BD0132A242F4D330BD24
:4025C000E091FF1F01230373704700230373704710B1002282720260704718B1027B0AB1013A02737047000038B5FFF727FE20B3124C4200E2600001FFF714FE238AA060E0
:40260000E0685843FFF70EFEA568E168228A002304E005EBC3046060013380188B42F8D31020FFF7FFFD054C60612820FFF7FAFDA37CA06143F00203A37438BDE091FF1F75
:4026400038B510220D4600210446FFF701FDFFF78FFF08B9013038BDA0604FF0FF33002065602360A07338BD38B5104B9C69217B59B921606160A16004F110001422FFF7CE
:40268000E7FC237B013323730DE0656A45B92820FFF7B2FD606218B129462822FFF7D8FC646A002CE3D1204638BD00BFE091FF1F38B50E4B5C69A17AE56839B920461022C6
:4026C000FFF7C6FC0123A372E5600CE045B91020FFF792FDE06018B129461022FFF7B8FCE468002CE7D1204638BD00BFE091FF1F2DE9F74F06460020884691469B469DF8F5
:4027000030A09DF83470FFF7AFFF054608B9044610E0FFF7CDFF044660B180F80B900560AE604046214652463B46CDF800B0FFF7CFF930B12046FFF74BFF2846FFF74DFF93
:4027400000242046BDE8FE8F2DE9FF410C461F4604A9002341F8043D15469DF8286000F0DDF88046B8B1039B0BB11B789BB1404600F05DF900280EDD14F0150F01D003289E
:4027800009D1039939B1404622462B4600970196FFF7AEFF00E0002004B0BDE8F08100002DE9F3410646884600240E4D404655F83410E700FFF782FC10B9002C04DA0DE0AA
:4027C00001340F2CF1D109E07D19A87929790090EA796B793046FFF7B7FF00E00020BDE8FC8100BF0C410000FFF7DABF10B5437B04460BB1012010BD40682168A268A37BDF
:40280000FFF7F7FD10B10120607310BD207310BD10B5437B044663B9037B53B140682168A268A37BFFF7E5FD08B1012363730023237310BD036870B5994204460D46164693
:4028400007D0037B0BB1FFF7E3FF00232560A673E37370BD10B50446FFF7ECFF0123E373237310BDFFF7D4BF10B50446FFF7D0FFA068BDE81040FFF791BE01230373FFF72F
:40288000C7BF10B50446407B08B1012010BDE37B5BB960682168A268A37BFFF744FD10B10120607310BD0122E27310BD08B5436813B94FF0FF3008BD984708BDF8B50C462E
:4028C00017460023144D01E0ED6D01338342FBDB2B6828791B68984706460CB92046F8BDFFF7F9FB0530B84214DC22460020335C013223540130315C0029F8D113464FF019
:402900003A0C03F801CB2C7903303034547083F801C09970F8BD00BFFC91FF1F2DE9F0470F463A210646FFF714FC044610B93446174D27E00378C6EB000A5BB114F8013F51
:4029400043B162783A2A05D1A3F130085FFA88F8023401E04FF000080D4D2B6828791B6898478146FFF7B7FB504508D1484631465246FFF7B8FB10B92B79434502D0ED6D18
:40298000002DEAD107B13C602846BDE8F08700BFFC91FF1FF8B5174C064694F85B10E56D69B9602201272046FFF752FB84F85B70E5653046FFF77AFF00280EDA18E045B951
:4029C0006020FFF719FCE06518B129466022FFF73FFBE46D002CE0D10AE0074B2660DA6F0132DA670323207184F85B7084F85A302046F8BDFC91FF1FE091FF1FFFF7CABF98
:402A000038B504460D46FFF75CFC08B9013838BD2046FFF769FC204600F0BCFB2046FEF781FD08B184F8595094F8590038BD90F8593023B990F85A1009B1FFF7E1BF1846E3
:402A4000704730B51346BAB1B0B10268857A0AB1946804B900247DB172B16CB1C27A12F0100204D14FF6FA730381104630BD1A46BDE83040FFF7F8B9002030BDFFF7E1BFC9
:402A80002DE9F04F8BB01C4605460992079100F0B1FB00228246214628461346FEF7A4FCDDF81CC0804608B9013867E0354B1FFA8AFB1B684FEA1A4A4FF010090026009059
:402AC000CDF804900296CDF80CB0CDF810A09F68284621466246099BB847002846D02046FFF770FD2046FFF7BDFEAA8B3146A068FFF7AEFA414605F11800FEF7AEF8089090
:402B0000089920460122FFF7A5FEA768424638464B461D490096CDF804B0CDF808A0FFF7D3F8099A07F1200018494B460096CDF804B0CDF808A0FFF7C7F82046FFF792FEBF
:402B4000A0683146AA8BFFF783FA08E0089B2046F1180122FFF76EFE2046FFF747FE95F8343001369E42F1DB002007E02846214642460123FEF766FC6FF001000BB0BDE89B
:402B8000F08F00BF2881FF1FB4410000C041000070B58AB0054604AC0E4620462946FFF74FFD09AB009328462146324608ABFEF72DFFB8B10898FFF78EFA98B1099B28460B
:402BC000009321460023089A01930293FEF7C6F8064638B928460899099A2346FFF750FF002801DA4FF0FF3604A8FFF73DFE30460AB070BD2DE9F04F8FB08B469DF8601082
:402C0000069207930991BDF86420BDF86C309DF8701005460B92BDF868800C930D91FFF750FB0028C0F2DF81002385F85930FFF79FFC0446002800F0D481AC4B1B8A434557
:402C4000C0F0CF81B8F1000F00F0CB81079A06994FEAC803002A08BFFF220A93A44B0792002908BF3F2102220C9F144606912A4684461D460C996B698F422E7C00D13FB97B
:402C8000202E03D0DDF82CA0012708E0374604E0202E02D0DDF82CA001E04FF0000A41464FEA4A1003920593CDF810C0FFF74CFAC7EB0B090999C0EB090999FBF1F0704391
:402CC0000A99FFF741FA09994000C0EB090999FBF1F906FB09F00A99FFF736FA039A0890059BDDF810C02CB940F6F471894508DD894601E0994504DA013C083DB4F1FF3FA2
:402D0000B8D164466046002115464246FFF7A0F96FF01603204600F8033B08227549FFF7F5F904F10B004146FFF73EFA099A04F10E0062733946FFF737FA0223237404F1C0
:402D400011005146FFF730FABBF5803F06D204F113001FFA8BF1FFF727FA04E004F120005946FFF717FA6FF00703637504F118000699FFF719FA04F11A000799FFF714FA48
:402D800004F11C002969FFF705FA202E6FF07F031DD084F82430A93384F8263004F127005549FFF7F7F9089B04F1160099B2FFF7FBF9524904F12B000B22FFF7A7F9504B45
:402DC000504904F136000C2E18BF194624E084F84030A93384F8423004F124000899FFF7D9F904F12C000221FFF7D4F904F130000121FFF7D9F9062384F8323004F143000E
:402E00003D49FFF7C7F93D4904F147000B22FFF77DF93D4904F152000822FFF777F904F5FF71084607914AF65521FFF7BDF90021284622460B46FFF7DCFA0028C0F29F80E0
:402E4000202E08D10621002328462246FFF7D1FA0028C0F29480002142462046FFF7F8F8089A0223520000932846394623460692FFF79AFA0028C0F282806FF0070323706B
:402E800007330C2E6370A3700DD0202EE3700AD1201D6FF07041FFF77DF904F108006FF07041FFF777F90223284639462246FFF7A0FA002863DB089B2846D9192246022333
:402EC000FFF797FA00285ADB002142462046FFF7BFF8069AD119BAF1000F17D04FEA4A12012300932846B2FBF8F213E0E091FF1FCC4100005842000067452301E441000098
:402F0000614200006A420000734200000123099A009328462346FFF747FA00282FDB202E31D1424600212046FFF792F820462F49FFF730F904F5F2702D49FFF72BF904F533
:402F4000F47009F1FF31FFF725F9032104F5F670FFF720F907984AF65521FFF725F90121002328462246FFF744FA002807DB0721002328462246FFF73CFA002803DA2046A3
:402F8000FFF70CFB2DE02B6933B30D9B23B30021284622460B46FFF7AFF9E8B90C2E94F8C23102D0102E06D002E04FF0010B09E04FF00B0B06E0BBF5803F34BF4FF0040BE8
:402FC0004FF0060B5B4507D0002184F8C2B1284622460B46FFF7F2F92046FFF7DFFA002001E04FF0FF300FB0BDE8F08F5252614172724161F0B58BB007AD044600210C2272
:403000002846FFF725F8204600F0C4F820462946FFF70AFA23690BB163690893089911B94FF0FF3020E0BDF81E20BDF81C30BDF82460002000E001300C4D4FEAC00C05F1F4
:40304000240757F83070B942F5D80CEB050090F82850408D00950190002003900130049020460296FFF7C6FD0BB0F0BDCC41000030B504468BB00D4600292FD0FFF721F9E6
:40308000002802DA4FF0FF302AE0204600F082F8AA6807AB22B920461946FFF7C5F902E007CA83E80700236923B16369089A9A4288BF08932978BDF81E2000916988BDF830
:4030C0001C300191BDF8241020460291A9880391A97904910899FFF78DFD01E0FFF78AFF0BB030BD0378E92B01D101207047EB2B01D0002070478078902814BF00200120B0
:40310000704708B500F5FF70FFF752F84AF65523984214BF0020012008BD01EB001000F5E370FFF72CB8F0B50D4685B01446064658B352B300210B46FFF7DEF8002824DBA6
:403140002046FFF7DEFF00B32046FFF7CBFF10B10024274616E02146FFF7DFFF074604F5E570FFF70CF801A904463046FFF75CF95CB157B1E219FF23120AB2FBF3F2029BF3
:403180009A4202D81DB12C6001E04FF0FF37384605B0F0BD73B50446FFF732F90646FFF7E7F90C4B05461B8AB3420DD366B1204601A92A46FFF7B7FFB0F1FF3F04D0206181
:4031C000019B6361002400E0FF242846FFF7E6F960B27CBDE091FF1F08B504484FF48051FFF71AF80248FFF709FC08BDC881FF1FC44200004FF40410704700BF4FF6FF700E
:4032000070470000014B1868704700BFC891FF1F00487047E442000000F016BD37B501220DF10701054600F015FD9DF80740FF2C14BF0A240724284601220DF1070100F01A
:4032400009FD9DF80700FF2803D1013CE4B2002CF1D13EBD37B50469857828460DF10701012200F0F7FC9DF807300BB1002003E0013CF2D14FF0FF303EBD37B54FF0FF33D4
:4032800005460C468DF8073006E028460DF10701012200F0EDFC013C002CF6DC3EBD000038B5094C2368032B02DD4FF0FF3509E0DDB2013323601420FEF7B4FF04EB850459
:4032C00060608570284638BDC891FF1F08B5034B4FF400711B68984708BD00BF2C81FF1F4FEAD20CACEBD103CCF10F0C10B501336044002410F801CB013B4CEA0424F9D17C
:4033000001F00703511A02228A40DC40013A04EA020010BD7FB5130E85788DF80530130C01F03F018DF80630130A41F040018DF8073000238DF808208DF804101A4601A950
:4033400011F802C000215B00DBB283EA0C0E1EF0800F18BF83F009030131082904D04FEA4C0C5FFA8CFCEEE70132052AE7D15B0043F001038DF809308678C4680122304654
:4033800003A900F067FC9DF80C30FF2B04D00CB9FF2009E0013CF1E7284601A9062200F067FC2846FFF73AFF04B070BDF7B5847806460F4620460121FFF75FFF204600F0D1
:4033C000E5FB304609210022FFF7A4FF8DF8070028BBF6680546012220460DF1060100F039FC9DF80630FE2B06D0FC2B04D00135ADB2B542EFD112E00DF1070520463946D5
:40340000102200F027FC29462046012200F022FC29462046012200F01DFC002500E0FF25204600F0BDFB20460121FFF726FF2846FEBD00002DE9F04F9B46494B89B003EB4C
:40344000800305925C684A02029103924FF00309029AA578E678039B2846022E08BF13461E4600F09DFB01212846FFF706FFBBF1010F0CBF4FF0110A4FF0120A284600F02B
:4034800085FB204651463246FFF744FF002851D1059F5E46A378E268B44604924FF000081E460FE0012230460DF11F01CDF804C000F0D0FB9DF81F20DDF804C0FE2A05D058
:4034C00008F10108049B9845ECD333E0284639464FF40072664600F0BDFB0222284607A900F0B8FB9DF81C30384601939DF81D80FFF7ECFE4FF6FF729042019B0CD048EA6A
:403500000328404508D0BAF1120F13D120460C210022FFF7FFFE0DE0013E02D007F50077B8E7BAF1120F07D120460C213246FFF7F1FE01E04FF0FF36284600F031FB2846BA
:403540000121FFF79AFE3EB1B9F1000F02D009F1FF397DE74FF0FF36304609B0BDE8F08FC891FF1F2DE9F04F99464C4B87B0029203EB80039DF840205D68009103926B7883
:40358000002B40F085804B0201930327009BAC78EE78019A2046022E08BF1A46164600F0FFFA01212046FFF768FEB9F1010F0CBF4FF0180A4FF0190A204600F0E7FA28460D
:4035C00051463246FFF7A6FE8DF81700002850D120460121FFF751FE029ECB46B8463046FFF774FE0DF11707BAF1180F0CBFFE23FC2301228DF817308DF81500030A3946D5
:4036000020468DF8143000F033FB204631464FF4007200F02DFB0222204605A900F028FB01222046394600F015FB9DF8173003F01F03052B1CD12846FFF70CFEC0B9039AAE
:403640000AB906F50076BBF1010BC8D1BAF1190F474611D106A96FF00203204601F8013D012200F005FB2846FFF7F4FD20B100E047464FF0FF3600E00026204600F090FAD3
:4036800020460121FFF7F9FD26B10FB1013F7DE74FF0FF36304607B0BDE8F08FC891FF1F2DE9F04F877887B0044638460D4600F06DFA20463A210022FFF72CFE064638B1EA
:4036C000384600F06DFA38460121FFF7D6FD58E00DF1140804224146384600F0BBFA4046FEF741FD8046384600F05AFA01213846FFF7C3FDB8F1000F28F07F02B8BF4FEAD2
:40370000987BD2B240F272634FEA1828B8BF0BF0010B1FFA88F8002A14BF1A460022012111EA080F05D10136F6B24900102E89B2F6D140F27260824233460DD06422724311
:4037400002F5FA6208E011EA080F07D049000133013689B2DBB2F6B20F2EF4D964214B434FF6FE7103F5FA6302EA01014FF6FC72384603EA020200F049FA10F0FF0F40F05A
:4037800099804FF0FF3092E028467E217F22FFF7A7FD8246EB78DFF82C8103F0030203F0780308EBD30358F822101B7C3846594389B200F001FA0646002877D06B7803F000
:4037C0000702DB1003F00F0308EB82024344126A93F810800292B8F1000F67D0A978284603911C221A21FFF77BFD0190BAF1000F1FD1502153222846FFF772FD4FF0010971
:4038000009FA00F92F2131222846FFF769FD1FFA89F982463E21284649224FEA5929FFF75FFD0AF1020A09FA0AF9013000FB09F910E0BAF1010F01D0012038E028463021C8
:403840004522FFF74DFD4FEA8029BBF1000F01D00223E37008FB06F2029B0399B2FBF3F2642303FB01225A437343D208DB089A4294BFE260E360FA235E43019BF6089A4057
:403880000C21B24294BF2261266128460D22FFF727FD0546384600F08DF94FF4007128436070A180C4F80890002000E0FF2007B0BDE8F08FE378A778012B3FF465AF4FF00A
:4038C000000A67E77C420000F0B5857887B004464FF4C871284600F06FF9B0F5C87F00F2CC804CF25033E3600026284600F058F90A212846FFF7C1FC624B93E80300019042
:403900002846ADF8081000F041F9062201A9284600F0AEF92846FFF781FC0746284600F03FF901212846FFF7A8FC17F0010F03D10136052ED9D1A0E0284600F027F9082147
:4039400020464FF4D572FFF7E5FC10F0040F52D0284600F025F9A5784FF4FA66284600F015F9002237212046FFF7D4FC28460121FFF783FC292100222046FFF7CBFC07461C
:40398000284600F00DF928460121FFF776FC17B90123E3701EE017F0040F01D1013EDDD14FF4FA66284600F0F1F8012100222046FFF7B0FC0746284600F0F2F82846012132
:4039C000FFF75BFC0FB9E77004E0012F55D1013EE8D152E001AD20462946FFF7E7FC00284BD120462946FFF75BFEC0B2002844D10123237043E00422A07805A900F02AF9AB
:403A0000284600F0CDF89DF81730AA2B35D19DF8163003F00F03012B2FD1A5784FF4FA66284600F0B3F8002237212046FFF772FC28460121FFF721FC29214FF0804220463F
:403A4000FFF768FC0746284600F0AAF828460121FFF713FC0FB1013EE2D101AE20463146FFF7A4FC48B90125E57020463146FFF717FEC0B208B9257001E04FF0FF3007B004
:403A8000F0BD00BFBC42000010B5084B03EB80035C6823783BB9FFF7BFFB20B12046BDE81040FFF711BF4FF0FF3010BDC891FF1F38B51D46154BA1F57B7103EB80035C6805
:403AC000072918D8DFE801F00A17171704041719204600211422FEF7BBFA0CE0237833B92046FFF7F1FE10B14FF0FF3038BDA3882B81A3686B60002038BD2046FEF77EFB88
:403B0000024B00201A68013A1A6038BDC891FF1F10B580B9104B1B78EBB901240E4B1C7000F036F93B20214600F04EF900F022F900F012F910BD084B1B7863B90124064B78
:403B40001C7000F025F93B20214600F03DF900F011F900F001F910BDDC91FF1F08B550B9084600F0B5F800F0A7F810F0010FFAD000F0BAF808BD084600F0AAF800F09CF8A2
:403B800010F0010FFAD000F0AFF808BD08B510B900F086F908BD002000F082F908BD00BF08B518B9012000F07BF908BD012000F077F908BD0020704738B50D46B1F5C87FE4
:403BC00003D3B1F57A6F03D804E04FF4C87501E04FF47A656C00A4B245F6C053B3FBF4F448B900F0D5F8601E80B2012100F0ECF800F0C0F808E000F0CBF8601E80B20121FF
:403C000000F0E2F800F0B6F8284638BD032809D840F6E44399420FD840F6E3439A420DD80020704740F6E443994209D840F6E3439A4207D8002070470020704701207047E4
:403C4000002070470120704708B5FFF761FF022008BD00BFF8B507460D4614466E1C3846FF21FFF77BFF28703546013CF6D1F8BD70B5064614464D1C30460978FFF76EFF43
:403C80002946013CF7D170BD08B5FCF75DFE094A137843F0200313700332137843F010031370013A137843F010031370FCF750FE08BD00BF94640040014B1878704700BF3A
:403CC00067640040014B1878704700BF66640040034B1B7813F0040FFAD0024B187070476764004046640040014B1878704700BF5664004008B501E00A4B1B780A4B1B7861
:403D000013F0200FF8D1FCF71FFE084B1A7842F001021A701A7802F0FE021A70FCF718FE08BD00BF56640040666400409664004008B50F22064B1A70FFF7DCFFFFF7BCFFB0
:403D4000FFF7C0FF0023034A1370013A137008BD846400408764004008B5054B1B7823B9FFF7E6FF0122024B1A70FFF78DFF08BDDD91FF1F054A137843F0010313701032CB
:403D8000137843F001031370704700BFA2430040054A137803F0FE0313701032137803F0FE031370704700BFA2430040014B188880B2704780400040024B187800F007004A
:403DC000704700BF8240004070B505460E46FFF7F3FF0446FFF7EAFF854256D02B4B1B7803F0010294B900B185B938B9284B1D80284A137803F0BF03137070BD254A1378F1
:403E000043F040031370224B1D8070BD22B3002321490B7001240F310C7004310B700C390B7803F07F030B701A4B1B7813F0080F00D08DB9194B18800721013B1970164BBA
:403E40001B7813F0010FFAD110490B7803F0FE030B700021104B19700C4B1B7813F0010F0DD00E4B1D800EB1032200E001220A4B1A70094B1B7813F0010FFAD170BD044BAA
:403E80001D8002490B7813430B7070BDA243004080400040824000400140004002400040044A137803F0FE0300F0010018431070704700BF30510040014B1868704700BF5D
:403EC0009081FF1F0E4B70B51E460E4C0025E41AA410A54204D056F8253098470135F8E700F004FA084B094C1E46E41AA4100025A54204D056F8253098470135F8E770BDDE
:403F0000F8420000F8420000F84200000043000010B5431E0A44914204D011F8014B03F8014FF8E710BD03460244934202D003F8011BFAE77047000000000000534420632A
:403F4000617264206E616D653A0000004661696C656420746F2067657400000053442063617264206E616D65000000005344206361726420666F726D6174000053756363CD
:403F800065656465640000004661696C6564000044697200224469722220637265617465640000004661696C656420746F20637265617465000000006469726563746F7213
:403FC000790000007700000046696C6520000000776173206F70656E65640000303132333435363738390000223031323334353637383922000000007772697474656E20C0
:40400000746F2066696C65004661696C656420746F207772697465006461746120746F2066696C6500000000484552450A000000405100403000C05100401000F0510040DC
:40404000100000000140001000140140000800400140000A004C01400002005001402000FF3F00001000000010000000FFFF01002000000020000000FFFF070020000000F5
:4040800040000000FFFF1F002000000080000000FFFF3F004000000080000000FFFFFF034000000000200000FF0F000002100000FF7F000002200000FFFF000004200000C4
:4040C000FFFF030008200000FFFF070010200000FFBF0F00103F0000FF7F1F00203F0000FFFF3E00403F0000FFFF7D00803F0000FFFF7D00FF3F00000D0E00004B0D000029
:40410000F10C0000000000002E2E00008441000008000100864100000A00010089410000140100018B410000160100018E410000150001019041000017000101934100001E
:4041400018000100964100001A0001009A4100001A0001009E4100001C010001A14100001E010001A54100001E010001A94100001D000101AC4100001F000101B041000031
:404180001F000101720072620077007762006100616200722B00722B620072622B00772B00772B620077622B00612B00612B620061622B002E202020202020202020200009
:4041C0002E2E202020202020202020000C0000000000000010000000F50F000020000000F5FF00004E4F204E414D452020202000000100000100200000020000010040004C
:4042000000080000010080000010000001000001004000000200000100800000020000010000040004000002000008000800000200001000100000020000000108000000D6
:4042400000000002100000000000000420000000FFFFFFFF400000004D5357494E342E31004641543136202020004641543132202020004641543332202020000A000000C1
:4042800064000000E803000010270000000A0C0D0F14191E23282D32373C41508096980040420F00A086010010270000E8030000640000000A000000010000004000000016
:4042C0000095000011320000A13200003534000065350000B13A0000893A000019320000053200006D6D630043000000F8B500BFF8BC08BC9E4670474D000000D9020000B9
:40430000F8B500BFF8BC08BC9E46704729000000204300000881FF1F90000000D01000000000000046696C652E747874000000000000E02EC05D00001800000000366E0165
:40434000F8400000FD3100000000000000000000000000000000000000000000000000000000000000000000E84200000000000000000000000000000000000000000000AD
:40438000000000000000000000000000000000000000000000000000000000000000000000000000000000003081FF1F00000000000000000000000000000000000000002E
:4043C00000000000000000000000000000000000000000000000000000000000000000000000000000000000000000000000000000000000000000000000000000000000BD
:40440000000000000000000000000000000000000000000000000000000000000000000000000000000000000000000000000000000000000000000000000000000000007C
:40444000000000000000000000000000000000000000000000000000000000000000000000000000000000000000000000000000000000000000000000000000000000003C
:4044800000000000000000000000000000000000000000000000000000000000000000000000000000000000000000000000000000000000000000000000000000000000FC
:020000040003F7
:0200000480007A
:40000000025200400164004001650040450401402C05014055060140370701402F14014018150140511601402F170140024001400541014003420140034301400548014004
:400040000A490140065001400151014000040120840F840D00C0016402020510066007E5081F0A200B640D240EFF1080119313601508169F187F19241A801B401D6420C048
:400080002164220124C02508260428C029772A082B802C902D402E402F0231F032FF3307350839223B0C3E0456025724580459045B045F018141854189408D088F21910110
:4000C00093409522970899049D41A101A510A907AB18B140B33FB908BF05D904DF0100400220034809040A080B8010AA1201190820402107222C23402508260229082A023D
:400100002B092E082F483020310A33403628374139183A013B803E163F406004682A69106A146B5570807202C00FC20EC40FCAEFCCFFCEFFD804005C0454060808500A0C10
:400140000C0C0E501240141116221C082021221E2424261028302A0F2C5C320F344036303A803E104046410342504401450E46FD47CB483D49FF4AFF4BFF4C224EF04F084F
:400180005004544058045A045B045F0162C0644065016610671168C069016B116C406D016E406F01800D840D8501880D8D0190B292449411950196E298409A309C029E0D01
:4001C000A00DA852AAA8AC0DB080B470B60FB701BAA0BE01BF40D409D804D904DB04DF0103540755090A0A050D080F821082120C1502162618041A451D081F58218033089E
:400200003A043B40450A46014D084E0B5401550456585741582059085A426180665067208620874091029340940497809A029B559E08A082A102A20AA504A709C0FEC2BF7D
:40024000C4FBCC02CE0AD0D0D230D60FD8780E01120136013E40404549FF4AFF4BFF4F01501852805401560458045A045B045D995F016040624064406540668068806A8020
:400280006C806E80C041C9FFCAFFCBFFCD83CE03CF01D018DA04DD09DF01E040E240E440E540E680E880EA80EC80EE80020109021940410245024601480259456380710278
:4002C0007280834099059A019E80A002AA40AC40C001C208D091D208D60BD801020E070208080D040F0312041402150817031F0C240E270129012A012B02300E310F340191
:400300003E01404549FF4AFF4BFF4D834E034F015018580459045A045D095F016040624064406540668068806A806C806E8085068A018D018F049205950296039701A80607
:40034000A901AB02B007B207B307B908C045C5ECC720C823C9FFCAFFCBFFCD83CE03CF01D018D804D904DA04DD09DF01E040E240E440E540E680E880EA80EC80EE80001075
:40038000074809080B400D080F4012081508160818101A801C801F10210427402B082F1832083608374839083B403E083F4042804680480249054C025002520193409A0846
:4003C000A108A208A308B021B601C052C23CC462CA64CC52CE5AD081D218EC403310CC10570863049F10D440D84097049F10A70897049F10A70897049F10A608A708B6084F
:40040000020883109F10A608AB08AF04C040E220EA40EE8000010A01100111011A011B01000300000024240024000000000B0B0000000000007F7F000000000004010100D3
:40044000000000000000000000000000000000000000000000000000000000000000000000000000000000000000000000000000000000000000000000000000000000007C
:40048000000000000000000000000000000000000000000000000000000000000000000000000000000000000000000000000000000000000000000000000000000000003C
:4004C00000000000000000000000000000000000000000000000000000000000000000000000000000000000000000000000000000000000000000000000000000000000FC
:4005000000000000000000000000000000000000000000000000000000000000000000000000000000000000000000000000000000000000000000000000000000000000BB
:0200000490006A
:0400000000004005B7
:0200000490105A
:04000000BC90ACAF55
:0200000490303A
:02000000CCE44E
:0200000490402A
:4000000000000000000000000000000000000000000000000000000000000000000000000000000000000000000000000000000000000000000000000000000000000000C0
:400040000000000000000000000000000000000000000000000000000000000000000000000000000000000000000000000000000000000000000000000000000000000080
:400080000000000000000000000000000000000000000000000000000000000000000000000000000000000000000000000000000000000000000000000000000000000040
:4000C0000000000000000000000000000000000000000000000000000000000000000000000000000000000000000000000000000000000000000000000000000000000000
:0200000490501A
:0C00000000012E12306900012E2EFD4D73
:00000001FF